:1000000001308A0014290000FF00030E8301A100C3
:100010000A08A0008A010408A2007708A300780853
:10002000A4007908A5007A08A600831383128B1D0B
:100030001B280B182C28220884002308F70024080A
:10004000F8002508F9002608FA0020088A00210E89
:100050008300FF0E7F0E09008A110A1261282A30E0
:10006000840083130008031942280630F800F701C2
:10007000F70B3828F80B37287B30F700F70B3E28B2
:10008000800B352808003C30AA002F2083168616E6
:100090008312861E5028831606168312061A6028BD
:1000A000831686168312861E5A2883160616831216
:1000B000061A5E280130AA002F205028A801A701A7
:1000C0000800831606168312061AB8280130A80005
:1000D000831606168312061A71280130AA002F20F3
:1000E0006828280BB828081683160812831288126D
:1000F0008316881283120813831608138312881735
:100100008316881383124320081283160812831261
:100110008816831688128312081383160813831215
:100120008817831688138312432008128316081237
:1001300083128816831688128312081783160813F1
:10014000831288138316881383124320081683169C
:1001500008128312881283168812831208178316D6
:10016000081383128813831688138312432071287F
:10017000831686168312861A0F290130A70083166C
:1001800086168312861AC8280130AA002F20BF289D
:10019000270B0F290816831608128312881283165C
:1001A0008812831208178316081383128813831684
:1001B00088138312432008128316081283128816AC
:1001C0008316881283120817831608138312881364
:1001D0008316881383124320081283160812831291
:1001E0008816831688128312081383160813831245
:1001F0008817831688138312432008168316081263
:100200008312881283168812831208138316081328
:10021000831288178316881383124320C828612805
:100220000B108A110A121B2803081F398300A7012B
:10023000A801A90183161F149F141F159F110730D1
:0E0240009C00831383128B15C0308B04630067
:02400E00323F3F
:00000001FF
;PIC16F877A
;CRC=CD46  CREATED="25-Oct-17 14:33"
